{
    "contractName": "CopyrightGuard",
    "abi": [
        {
            "inputs": [],
            "stateMutability": "nonpayable",
            "type": "constructor"
        },
        {
            "anonymous": false,
            "inputs": [
                {
                    "indexed": true,
                    "internalType": "uint256",
                    "name": "id",
                    "type": "uint256"
                },
                {
                    "indexed": true,
                    "internalType": "address",
                    "name": "creator",
                    "type": "address"
                },
                {
                    "indexed": false,
                    "internalType": "enum CopyrightGuard.WorkType",
                    "name": "workType",
                    "type": "uint8"
                },
                {
                    "indexed": false,
                    "internalType": "string",
                    "name": "description",
                    "type": "string"
                },
                {
                    "indexed": false,
                    "internalType": "uint256",
                    "name": "timestamp",
                    "type": "uint256"
                }
            ],
            "name": "WorkRegistered",
            "type": "event"
        },
        {
            "inputs": [
                {
                    "internalType": "uint256",
                    "name": "id",
                    "type": "uint256"
                }
            ],
            "name": "monitorUsage",
            "outputs": [
                {
                    "internalType": "uint256",
                    "name": "timestamp",
                    "type": "uint256"
                }
            ],
            "stateMutability": "view",
            "type": "function"
        },
        {
            "inputs": [],
            "name": "owner",
            "outputs": [
                {
                    "internalType": "address",
                    "name": "",
                    "type": "address"
                }
            ],
            "stateMutability": "view",
            "type": "function"
        },
        {
            "inputs": [
                {
                    "internalType": "uint256",
                    "name": "id",
                    "type": "uint256"
                },
                {
                    "internalType": "enum CopyrightGuard.WorkType",
                    "name": "workType",
                    "type": "uint8"
                },
                {
                    "internalType": "string",
                    "name": "description",
                    "type": "string"
                }
            ],
            "name": "registerWork",
            "outputs": [],
            "stateMutability": "nonpayable",
            "type": "function"
        },
        {
            "inputs": [
                {
                    "internalType": "uint256",
                    "name": "id",
                    "type": "uint256"
                },
                {
                    "internalType": "address",
                    "name": "newOwner",
                    "type": "address"
                }
            ],
            "name": "transferOwnership",
            "outputs": [],
            "stateMutability": "nonpayable",
            "type": "function"
        },
        {
            "inputs": [
                {
                    "internalType": "uint256",
                    "name": "id",
                    "type": "uint256"
                }
            ],
            "name": "verifyAuthenticity",
            "outputs": [
                {
                    "internalType": "address",
                    "name": "creator",
                    "type": "address"
                },
                {
                    "internalType": "enum CopyrightGuard.WorkType",
                    "name": "workType",
                    "type": "uint8"
                },
                {
                    "internalType": "string",
                    "name": "description",
                    "type": "string"
                },
                {
                    "internalType": "uint256",
                    "name": "timestamp",
                    "type": "uint256"
                }
            ],
            "stateMutability": "view",
            "type": "function"
        },
        {
            "inputs": [
                {
                    "internalType": "uint256",
                    "name": "",
                    "type": "uint256"
                }
            ],
            "name": "works",
            "outputs": [
                {
                    "internalType": "address",
                    "name": "creator",
                    "type": "address"
                },
                {
                    "internalType": "enum CopyrightGuard.WorkType",
                    "name": "workType",
                    "type": "uint8"
                },
                {
                    "internalType": "string",
                    "name": "description",
                    "type": "string"
                },
                {
                    "internalType": "uint256",
                    "name": "timestamp",
                    "type": "uint256"
                },
                {
                    "internalType": "bool",
                    "name": "exists",
                    "type": "bool"
                }
            ],
            "stateMutability": "view",
            "type": "function"
        }
    ],
    "bytecode": "608060405234801561001057600080fd5b50600080546001600160a01b03191633179055610992806100326000396000f3fe608060405234801561001057600080fd5b50600436106100625760003560e01c8063257d7a621461006757806329507f731461007c5780638ab0eab71461008f5780638da5cb5b146100bb578063993485a7146100e6578063c66e1dd514610107575b600080fd5b61007a610075366004610587565b61012b565b005b61007a61008a366004610658565b6102ae565b6100a261009d366004610694565b610357565b6040516100b2949392919061072b565b60405180910390f35b6000546100ce906001600160a01b031681565b6040516001600160a01b0390911681526020016100b2565b6100f96100f4366004610694565b61045e565b6040519081526020016100b2565b61011a610115366004610694565b6104a5565b6040516100b295949392919061076b565b60008381526001602052604090206003015460ff161561018b5760405162461bcd60e51b8152602060048201526016602482015275576f726b20494420616c72656164792065786973747360501b60448201526064015b60405180910390fd5b6040518060a00160405280336001600160a01b031681526020018360018111156101b7576101b76106ad565b815260208082018490524260408084019190915260016060909301839052600087815283835220835181546001600160a01b039091166001600160a01b0319821681178355928501519193919284926001600160a81b03199092161790600160a01b90849081111561022b5761022b6106ad565b021790555060408201516001820190610244908261083c565b50606082015160028201556080909101516003909101805460ff1916911515919091179055604051339084907f72b5624171bfd09cd6e3d36fa1d3253c38dccfe83b5e5508173bbf705a3706d5906102a1908690869042906108fc565b60405180910390a3505050565b6000546001600160a01b031633146102f85760405162461bcd60e51b815260206004820152600d60248201526c2737ba103a34329037bbb732b960991b6044820152606401610182565b60008281526001602052604090206003015460ff166103295760405162461bcd60e51b81526004016101829061092c565b60009182526001602052604090912080546001600160a01b0319166001600160a01b03909216919091179055565b6000818152600160205260408120600301548190606090829060ff1661038f5760405162461bcd60e51b81526004016101829061092c565b6000858152600160208190526040909120805460028201549190920180546001600160a01b03841693600160a01b900460ff16929082906103cf906107b3565b80601f01602080910402602001604051908101604052809291908181526020018280546103fb906107b3565b80156104485780601f1061041d57610100808354040283529160200191610448565b820191906000526020600020905b81548152906001019060200180831161042b57829003601f168201915b5050505050915093509350935093509193509193565b60008181526001602052604081206003015460ff1661048f5760405162461bcd60e51b81526004016101829061092c565b5060009081526001602052604090206002015490565b6001602081905260009182526040909120805491810180546001600160a01b03841693600160a01b900460ff169291906104de906107b3565b80601f016020809104026020016040519081016040528092919081815260200182805461050a906107b3565b80156105575780601f1061052c57610100808354040283529160200191610557565b820191906000526020600020905b81548152906001019060200180831161053a57829003601f168201915b50505050600283015460039093015491929160ff16905085565b634e487b7160e01b600052604160045260246000fd5b60008060006060848603121561059c57600080fd5b833592506020840135600281106105b257600080fd5b9150604084013567ffffffffffffffff808211156105cf57600080fd5b818601915086601f8301126105e357600080fd5b8135818111156105f5576105f5610571565b604051601f8201601f19908116603f0116810190838211818310171561061d5761061d610571565b8160405282815289602084870101111561063657600080fd5b8260208601602083013760006020848301015280955050505050509250925092565b6000806040838503121561066b57600080fd5b8235915060208301356001600160a01b038116811461068957600080fd5b809150509250929050565b6000602082840312156106a657600080fd5b5035919050565b634e487b7160e01b600052602160045260246000fd5b600281106106e157634e487b7160e01b600052602160045260246000fd5b9052565b6000815180845260005b8181101561070b576020818501810151868301820152016106ef565b506000602082860101526020601f19601f83011685010191505092915050565b6001600160a01b038516815261074460208201856106c3565b60806040820152600061075a60808301856106e5565b905082606083015295945050505050565b6001600160a01b038616815261078460208201866106c3565b60a06040820152600061079a60a08301866106e5565b6060830194909452509015156080909101529392505050565b600181811c908216806107c757607f821691505b6020821081036107e757634e487b7160e01b600052602260045260246000fd5b50919050565b601f82111561083757600081815260208120601f850160051c810160208610156108145750805b601f850160051c820191505b8181101561083357828155600101610820565b5050505b505050565b815167ffffffffffffffff81111561085657610856610571565b61086a8161086484546107b3565b846107ed565b602080601f83116001811461089f57600084156108875750858301515b600019600386901b1c1916600185901b178555610833565b600085815260208120601f198616915b828110156108ce578886015182559484019460019091019084016108af565b50858210156108ec5787850151600019600388901b60f8161c191681555b5050505050600190811b01905550565b61090681856106c3565b60606020820152600061091c60608301856106e5565b9050826040830152949350505050565b60208082526016908201527515dbdc9ac8125108191bd95cc81b9bdd08195e1a5cdd60521b60408201526060019056fea2646970667358221220efb1762a1a72ac6d71ed4cbedbef161b6dffc472174b646f98b7cfa0adf1c51f64736f6c63430008130033",
    "sourcePath": "c:/Users/Kenia/Desktop/SmartContracts/CopyrightGuardProject/contracts/CopyrightGuard.sol",
    "compiler": {
        "name": "solc",
        "version": "0.8.19+commit.7dd6d404"
    },
    "functionHashes": {
        "monitorUsage(uint256)": "993485a7",
        "owner()": "8da5cb5b",
        "registerWork(uint256,uint8,string)": "257d7a62",
        "transferOwnership(uint256,address)": "29507f73",
        "verifyAuthenticity(uint256)": "8ab0eab7",
        "works(uint256)": "c66e1dd5"
    },
    "gasEstimates": {
        "creation": {
            "codeDepositCost": "490000",
            "executionCost": "24759",
            "totalCost": "514759"
        },
        "external": {
            "monitorUsage(uint256)": "4719",
            "owner()": "2381",
            "registerWork(uint256,uint8,string)": "infinite",
            "transferOwnership(uint256,address)": "28968",
            "verifyAuthenticity(uint256)": "infinite",
            "works(uint256)": "infinite"
        }
    }
}