{
  "contractName": "CopyrightGuard",
  "abi": [
    {
      "inputs": [],
      "stateMutability": "nonpayable",
      "type": "constructor"
    },
    {
      "anonymous": false,
      "inputs": [
        {
          "indexed": true,
          "internalType": "uint256",
          "name": "id",
          "type": "uint256"
        },
        {
          "indexed": true,
          "internalType": "address",
          "name": "owner",
          "type": "address"
        },
        {
          "indexed": false,
          "internalType": "string",
          "name": "work",
          "type": "string"
        }
      ],
      "name": "WorkRegistered",
      "type": "event"
    },
    {
      "inputs": [],
      "name": "owner",
      "outputs": [
        {
          "internalType": "address",
          "name": "",
          "type": "address"
        }
      ],
      "stateMutability": "view",
      "type": "function"
    },
    {
      "inputs": [
        {
          "internalType": "uint256",
          "name": "",
          "type": "uint256"
        }
      ],
      "name": "owners",
      "outputs": [
        {
          "internalType": "address",
          "name": "",
          "type": "address"
        }
      ],
      "stateMutability": "view",
      "type": "function"
    },
    {
      "inputs": [
        {
          "internalType": "uint256",
          "name": "",
          "type": "uint256"
        }
      ],
      "name": "works",
      "outputs": [
        {
          "internalType": "string",
          "name": "",
          "type": "string"
        }
      ],
      "stateMutability": "view",
      "type": "function"
    },
    {
      "inputs": [
        {
          "internalType": "uint256",
          "name": "id",
          "type": "uint256"
        },
        {
          "internalType": "string",
          "name": "work",
          "type": "string"
        }
      ],
      "name": "registerWork",
      "outputs": [],
      "stateMutability": "nonpayable",
      "type": "function"
    },
    {
      "inputs": [
        {
          "internalType": "uint256",
          "name": "id",
          "type": "uint256"
        },
        {
          "internalType": "address",
          "name": "newOwner",
          "type": "address"
        }
      ],
      "name": "transferOwnership",
      "outputs": [],
      "stateMutability": "nonpayable",
      "type": "function"
    }
  ],
  "bytecode": "0x608060405234801561000f575f80fd5b50335f806101000a81548173ffffffffffffffffffffffffffffffffffffffff021916908373ffffffffffffffffffffffffffffffffffffffff160217905550610c708061005c5f395ff3fe608060405234801561000f575f80fd5b5060043610610055575f3560e01c8063025e7c271461005957806329507f73146100895780633fe6d2b0146100a55780638da5cb5b146100c1578063c66e1dd5146100df575b5f80fd5b610073600480360381019061006e919061051e565b61010f565b6040516100809190610588565b60405180910390f35b6100a3600480360381019061009e91906105cb565b61013f565b005b6100bf60048036038101906100ba9190610745565b6102bd565b005b6100c961041c565b6040516100d69190610588565b60405180910390f35b6100f960048036038101906100f4919061051e565b61043f565b6040516101069190610819565b60405180910390f35b6001602052805f5260405f205f915054906101000a900473ffffffffffffffffffffffffffffffffffffffff1681565b5f8054906101000a900473ffffffffffffffffffffffffffffffffffffffff1673ffffffffffffffffffffffffffffffffffffffff163373ffffffffffffffffffffffffffffffffffffffff16146101cc576040517f08c379a00000000000000000000000000000000000000000000000000000000081526004016101c390610883565b60405180910390fd5b3373ffffffffffffffffffffffffffffffffffffffff1660015f8481526020019081526020015f205f9054906101000a900473ffffffffffffffffffffffffffffffffffffffff1673ffffffffffffffffffffffffffffffffffffffff161461026a576040517f08c379a0000000000000000000000000000000000000000000000000000000008152600401610261906108eb565b60405180910390fd5b8060015f8481526020019081526020015f205f6101000a81548173ffffffffffffffffffffffffffffffffffffffff021916908373ffffffffffffffffffffffffffffffffffffffff1602179055505050565b5f73ffffffffffffffffffffffffffffffffffffffff1660015f8481526020019081526020015f205f9054906101000a900473ffffffffffffffffffffffffffffffffffffffff1673ffffffffffffffffffffffffffffffffffffffff161461035b576040517f08c379a000000000000000000000000000000000000000000000000000000000815260040161035290610953565b60405180910390fd5b3360015f8481526020019081526020015f205f6101000a81548173ffffffffffffffffffffffffffffffffffffffff021916908373ffffffffffffffffffffffffffffffffffffffff1602179055508060025f8481526020019081526020015f2090816103c89190610b6b565b503373ffffffffffffffffffffffffffffffffffffffff16827f4e9946835a286df4d1642d52be28c850019984d209fbe3f3556633d609d4ef28836040516104109190610819565b60405180910390a35050565b5f8054906101000a900473ffffffffffffffffffffffffffffffffffffffff1681565b6002602052805f5260405f205f91509050805461045b9061099e565b80601f01602080910402602001604051908101604052809291908181526020018280546104879061099e565b80156104d25780601f106104a9576101008083540402835291602001916104d2565b820191905f5260205f20905b8154815290600101906020018083116104b557829003601f168201915b505050505081565b5f604051905090565b5f80fd5b5f80fd5b5f819050919050565b6104fd816104eb565b8114610507575f80fd5b50565b5f81359050610518816104f4565b92915050565b5f60208284031215610533576105326104e3565b5b5f6105408482850161050a565b91505092915050565b5f73ffffffffffffffffffffffffffffffffffffffff82169050919050565b5f61057282610549565b9050919050565b61058281610568565b82525050565b5f60208201905061059b5f830184610579565b92915050565b6105aa81610568565b81146105b4575f80fd5b50565b5f813590506105c5816105a1565b92915050565b5f80604083850312156105e1576105e06104e3565b5b5f6105ee8582860161050a565b92505060206105ff858286016105b7565b9150509250929050565b5f80fd5b5f80fd5b5f601f19601f8301169050919050565b7f4e487b71000000000000000000000000000000000000000000000000000000005f52604160045260245ffd5b61065782610611565b810181811067ffffffffffffffff8211171561067657610675610621565b5b80604052505050565b5f6106886104da565b9050610694828261064e565b919050565b5f67ffffffffffffffff8211156106b3576106b2610621565b5b6106bc82610611565b9050602081019050919050565b828183375f83830152505050565b5f6106e96106e484610699565b61067f565b9050828152602081018484840111156107055761070461060d565b5b6107108482856106c9565b509392505050565b5f82601f83011261072c5761072b610609565b5b813561073c8482602086016106d7565b91505092915050565b5f806040838503121561075b5761075a6104e3565b5b5f6107688582860161050a565b925050602083013567ffffffffffffffff811115610789576107886104e7565b5b61079585828601610718565b9150509250929050565b5f81519050919050565b5f82825260208201905092915050565b5f5b838110156107d65780820151818401526020810190506107bb565b5f8484015250505050565b5f6107eb8261079f565b6107f581856107a9565b93506108058185602086016107b9565b61080e81610611565b840191505092915050565b5f6020820190508181035f83015261083181846107e1565b905092915050565b7f4e6f7420746865206f776e6572000000000000000000000000000000000000005f82015250565b5f61086d600d836107a9565b915061087882610839565b602082019050919050565b5f6020820190508181035f83015261089a81610861565b9050919050565b7f4e6f7420746865206f776e6572206f662074686520776f726b000000000000005f82015250565b5f6108d56019836107a9565b91506108e0826108a1565b602082019050919050565b5f6020820190508181035f830152610902816108c9565b9050919050565b7f576f726b20494420616c726561647920657869737473000000000000000000005f82015250565b5f61093d6016836107a9565b915061094882610909565b602082019050919050565b5f6020820190508181035f83015261096a81610931565b9050919050565b7f4e487b71000000000000000000000000000000000000000000000000000000005f52602260045260245ffd5b5f60028204905060018216806109b557607f821691505b6020821081036109c8576109c7610971565b5b50919050565b5f819050815f5260205f209050919050565b5f6020601f8301049050919050565b5f82821b905092915050565b5f60088302610a2a7fffffffffffffffffffffffffffffffffffffffffffffffffffffffffffffffff826109ef565b610a3486836109ef565b95508019841693508086168417925050509392505050565b5f819050919050565b5f610a6f610a6a610a65846104eb565b610a4c565b6104eb565b9050919050565b5f819050919050565b610a8883610a55565b610a9c610a9482610a76565b8484546109fb565b825550505050565b5f90565b610ab0610aa4565b610abb818484610a7f565b505050565b5b81811015610ade57610ad35f82610aa8565b600181019050610ac1565b5050565b601f821115610b2357610af4816109ce565b610afd846109e0565b81016020851015610b0c578190505b610b20610b18856109e0565b830182610ac0565b50505b505050565b5f82821c905092915050565b5f610b435f1984600802610b28565b1980831691505092915050565b5f610b5b8383610b34565b9150826002028217905092915050565b610b748261079f565b67ffffffffffffffff811115610b8d57610b8c610621565b5b610b97825461099e565b610ba2828285610ae2565b5f60209050601f831160018114610bd3575f8415610bc1578287015190505b610bcb8582610b50565b865550610c32565b601f198416610be1866109ce565b5f5b82811015610c0857848901518255600182019150602085019450602081019050610be3565b86831015610c255784890151610c21601f891682610b34565b8355505b6001600288020188555050505b50505050505056fea2646970667358221220d2644572fcf9b729a3644049af4a8ae7456ab44b9cb3220694de4558394d03b264736f6c63430008150033",
  "immutableReferences": {},
  "source": "// SPDX-License-Identifier: MIT\r\npragma solidity ^0.8.0;\r\n\r\ncontract CopyrightGuard {\r\n    address public owner;\r\n    mapping(uint256 => address) public owners;\r\n    mapping(uint256 => string) public works;\r\n\r\n    event WorkRegistered(uint256 indexed id, address indexed owner, string work);\r\n\r\n    modifier onlyOwner() {\r\n        require(msg.sender == owner, \"Not the owner\");\r\n        _;\r\n    }\r\n\r\n    constructor() {\r\n        owner = msg.sender;\r\n    }\r\n\r\n    function registerWork(uint256 id, string memory work) external {\r\n        require(owners[id] == address(0), \"Work ID already exists\");\r\n        owners[id] = msg.sender;\r\n        works[id] = work;\r\n        emit WorkRegistered(id, msg.sender, work);\r\n    }\r\n\r\n    function transferOwnership(uint256 id, address newOwner) external onlyOwner {\r\n        require(owners[id] == msg.sender, \"Not the owner of the work\");\r\n        owners[id] = newOwner;\r\n    }\r\n}\r\n",
  "sourcePath": "C:\\Users\\Kenia\\Desktop\\SmartContracts\\CopyrightGuardProject\\contracts\\CopyrightGuard.sol",
  "compiler": {
    "name": "solc",
    "version": "0.8.21+commit.d9974bed.Emscripten.clang"
  },
  "schemaVersion": "3.4.16",
  "updatedAt": "2023-11-12T05:11:58.058Z",
  "devdoc": {
    "kind": "dev",
    "methods": {},
    "version": 1
  },
  "userdoc": {
    "kind": "user",
    "methods": {},
    "version": 1
  }
}