{
  "contractName": "CopyrightGuard",
  "abi": [
    {
      "inputs": [],
      "stateMutability": "nonpayable",
      "type": "constructor"
    },
    {
      "anonymous": false,
      "inputs": [
        {
          "indexed": true,
          "internalType": "uint256",
          "name": "id",
          "type": "uint256"
        },
        {
          "indexed": true,
          "internalType": "address",
          "name": "creator",
          "type": "address"
        },
        {
          "indexed": false,
          "internalType": "enum CopyrightGuard.WorkType",
          "name": "workType",
          "type": "uint8"
        },
        {
          "indexed": false,
          "internalType": "string",
          "name": "description",
          "type": "string"
        },
        {
          "indexed": false,
          "internalType": "uint256",
          "name": "timestamp",
          "type": "uint256"
        }
      ],
      "name": "WorkRegistered",
      "type": "event"
    },
    {
      "inputs": [],
      "name": "owner",
      "outputs": [
        {
          "internalType": "address",
          "name": "",
          "type": "address"
        }
      ],
      "stateMutability": "view",
      "type": "function"
    },
    {
      "inputs": [
        {
          "internalType": "uint256",
          "name": "",
          "type": "uint256"
        }
      ],
      "name": "works",
      "outputs": [
        {
          "internalType": "address",
          "name": "creator",
          "type": "address"
        },
        {
          "internalType": "enum CopyrightGuard.WorkType",
          "name": "workType",
          "type": "uint8"
        },
        {
          "internalType": "string",
          "name": "description",
          "type": "string"
        },
        {
          "internalType": "uint256",
          "name": "timestamp",
          "type": "uint256"
        },
        {
          "internalType": "bool",
          "name": "exists",
          "type": "bool"
        }
      ],
      "stateMutability": "view",
      "type": "function"
    },
    {
      "inputs": [
        {
          "internalType": "uint256",
          "name": "id",
          "type": "uint256"
        },
        {
          "internalType": "enum CopyrightGuard.WorkType",
          "name": "workType",
          "type": "uint8"
        },
        {
          "internalType": "string",
          "name": "description",
          "type": "string"
        }
      ],
      "name": "registerWork",
      "outputs": [],
      "stateMutability": "nonpayable",
      "type": "function"
    },
    {
      "inputs": [
        {
          "internalType": "uint256",
          "name": "id",
          "type": "uint256"
        }
      ],
      "name": "verifyAuthenticity",
      "outputs": [
        {
          "internalType": "address",
          "name": "creator",
          "type": "address"
        },
        {
          "internalType": "enum CopyrightGuard.WorkType",
          "name": "workType",
          "type": "uint8"
        },
        {
          "internalType": "string",
          "name": "description",
          "type": "string"
        },
        {
          "internalType": "uint256",
          "name": "timestamp",
          "type": "uint256"
        }
      ],
      "stateMutability": "view",
      "type": "function"
    },
    {
      "inputs": [
        {
          "internalType": "uint256",
          "name": "id",
          "type": "uint256"
        }
      ],
      "name": "monitorUsage",
      "outputs": [
        {
          "internalType": "uint256",
          "name": "timestamp",
          "type": "uint256"
        }
      ],
      "stateMutability": "view",
      "type": "function"
    },
    {
      "inputs": [
        {
          "internalType": "uint256",
          "name": "id",
          "type": "uint256"
        },
        {
          "internalType": "address",
          "name": "newOwner",
          "type": "address"
        }
      ],
      "name": "transferOwnership",
      "outputs": [],
      "stateMutability": "nonpayable",
      "type": "function"
    }
  ],
  "bytecode": "0x608060405234801561000f575f80fd5b50335f806101000a81548173ffffffffffffffffffffffffffffffffffffffff021916908373ffffffffffffffffffffffffffffffffffffffff1602179055506110ac8061005c5f395ff3fe608060405234801561000f575f80fd5b5060043610610060575f3560e01c8063257d7a621461006457806329507f73146100805780638ab0eab71461009c5780638da5cb5b146100cf578063993485a7146100ed578063c66e1dd51461011d575b5f80fd5b61007e60048036038101906100799190610911565b610151565b005b61009a600480360381019061009591906109d7565b610322565b005b6100b660048036038101906100b19190610a15565b610464565b6040516100c69493929190610b4b565b60405180910390f35b6100d76105df565b6040516100e49190610b95565b60405180910390f35b61010760048036038101906101029190610a15565b610602565b6040516101149190610bae565b60405180910390f35b61013760048036038101906101329190610a15565b61067f565b604051610148959493929190610be1565b60405180910390f35b60015f8481526020019081526020015f206003015f9054906101000a900460ff16156101b2576040517f08c379a00000000000000000000000000000000000000000000000000000000081526004016101a990610c83565b60405180910390fd5b6040518060a001604052803373ffffffffffffffffffffffffffffffffffffffff1681526020018360018111156101ec576101eb610a4f565b5b81526020018281526020014281526020016001151581525060015f8581526020019081526020015f205f820151815f015f6101000a81548173ffffffffffffffffffffffffffffffffffffffff021916908373ffffffffffffffffffffffffffffffffffffffff1602179055506020820151815f0160146101000a81548160ff0219169083600181111561028357610282610a4f565b5b0217905550604082015181600101908161029d9190610e9b565b50606082015181600201556080820151816003015f6101000a81548160ff0219169083151502179055509050503373ffffffffffffffffffffffffffffffffffffffff16837f72b5624171bfd09cd6e3d36fa1d3253c38dccfe83b5e5508173bbf705a3706d584844260405161031593929190610f6a565b60405180910390a3505050565b5f8054906101000a900473ffffffffffffffffffffffffffffffffffffffff1673ffffffffffffffffffffffffffffffffffffffff163373ffffffffffffffffffffffffffffffffffffffff16146103af576040517f08c379a00000000000000000000000000000000000000000000000000000000081526004016103a690610ff0565b60405180910390fd5b60015f8381526020019081526020015f206003015f9054906101000a900460ff1661040f576040517f08c379a000000000000000000000000000000000000000000000000000000000815260040161040690611058565b60405180910390fd5b8060015f8481526020019081526020015f205f015f6101000a81548173ffffffffffffffffffffffffffffffffffffffff021916908373ffffffffffffffffffffffffffffffffffffffff1602179055505050565b5f8060605f60015f8681526020019081526020015f206003015f9054906101000a900460ff166104c9576040517f08c379a00000000000000000000000000000000000000000000000000000000081526004016104c090611058565b60405180910390fd5b60015f8681526020019081526020015f205f015f9054906101000a900473ffffffffffffffffffffffffffffffffffffffff1660015f8781526020019081526020015f205f0160149054906101000a900460ff1660015f8881526020019081526020015f2060010160015f8981526020019081526020015f206002015481805461055290610cce565b80601f016020809104026020016040519081016040528092919081815260200182805461057e90610cce565b80156105c95780601f106105a0576101008083540402835291602001916105c9565b820191905f5260205f20905b8154815290600101906020018083116105ac57829003601f168201915b5050505050915093509350935093509193509193565b5f8054906101000a900473ffffffffffffffffffffffffffffffffffffffff1681565b5f60015f8381526020019081526020015f206003015f9054906101000a900460ff16610663576040517f08c379a000000000000000000000000000000000000000000000000000000000815260040161065a90611058565b60405180910390fd5b60015f8381526020019081526020015f20600201549050919050565b6001602052805f5260405f205f91509050805f015f9054906101000a900473ffffffffffffffffffffffffffffffffffffffff1690805f0160149054906101000a900460ff16908060010180546106d590610cce565b80601f016020809104026020016040519081016040528092919081815260200182805461070190610cce565b801561074c5780601f106107235761010080835404028352916020019161074c565b820191905f5260205f20905b81548152906001019060200180831161072f57829003601f168201915b505050505090806002015490806003015f9054906101000a900460ff16905085565b5f604051905090565b5f80fd5b5f80fd5b5f819050919050565b6107918161077f565b811461079b575f80fd5b50565b5f813590506107ac81610788565b92915050565b600281106107be575f80fd5b50565b5f813590506107cf816107b2565b92915050565b5f80fd5b5f80fd5b5f601f19601f8301169050919050565b7f4e487b71000000000000000000000000000000000000000000000000000000005f52604160045260245ffd5b610823826107dd565b810181811067ffffffffffffffff82111715610842576108416107ed565b5b80604052505050565b5f61085461076e565b9050610860828261081a565b919050565b5f67ffffffffffffffff82111561087f5761087e6107ed565b5b610888826107dd565b9050602081019050919050565b828183375f83830152505050565b5f6108b56108b084610865565b61084b565b9050828152602081018484840111156108d1576108d06107d9565b5b6108dc848285610895565b509392505050565b5f82601f8301126108f8576108f76107d5565b5b81356109088482602086016108a3565b91505092915050565b5f805f6060848603121561092857610927610777565b5b5f6109358682870161079e565b9350506020610946868287016107c1565b925050604084013567ffffffffffffffff8111156109675761096661077b565b5b610973868287016108e4565b9150509250925092565b5f73ffffffffffffffffffffffffffffffffffffffff82169050919050565b5f6109a68261097d565b9050919050565b6109b68161099c565b81146109c0575f80fd5b50565b5f813590506109d1816109ad565b92915050565b5f80604083850312156109ed576109ec610777565b5b5f6109fa8582860161079e565b9250506020610a0b858286016109c3565b9150509250929050565b5f60208284031215610a2a57610a29610777565b5b5f610a378482850161079e565b91505092915050565b610a498161099c565b82525050565b7f4e487b71000000000000000000000000000000000000000000000000000000005f52602160045260245ffd5b60028110610a8d57610a8c610a4f565b5b50565b5f819050610a9d82610a7c565b919050565b5f610aac82610a90565b9050919050565b610abc81610aa2565b82525050565b5f81519050919050565b5f82825260208201905092915050565b5f5b83811015610af9578082015181840152602081019050610ade565b5f8484015250505050565b5f610b0e82610ac2565b610b188185610acc565b9350610b28818560208601610adc565b610b31816107dd565b840191505092915050565b610b458161077f565b82525050565b5f608082019050610b5e5f830187610a40565b610b6b6020830186610ab3565b8181036040830152610b7d8185610b04565b9050610b8c6060830184610b3c565b95945050505050565b5f602082019050610ba85f830184610a40565b92915050565b5f602082019050610bc15f830184610b3c565b92915050565b5f8115159050919050565b610bdb81610bc7565b82525050565b5f60a082019050610bf45f830188610a40565b610c016020830187610ab3565b8181036040830152610c138186610b04565b9050610c226060830185610b3c565b610c2f6080830184610bd2565b9695505050505050565b7f576f726b20494420616c726561647920657869737473000000000000000000005f82015250565b5f610c6d601683610acc565b9150610c7882610c39565b602082019050919050565b5f6020820190508181035f830152610c9a81610c61565b9050919050565b7f4e487b71000000000000000000000000000000000000000000000000000000005f52602260045260245ffd5b5f6002820490506001821680610ce557607f821691505b602082108103610cf857610cf7610ca1565b5b50919050565b5f819050815f5260205f209050919050565b5f6020601f8301049050919050565b5f82821b905092915050565b5f60088302610d5a7fffffffffffffffffffffffffffffffffffffffffffffffffffffffffffffffff82610d1f565b610d648683610d1f565b95508019841693508086168417925050509392505050565b5f819050919050565b5f610d9f610d9a610d958461077f565b610d7c565b61077f565b9050919050565b5f819050919050565b610db883610d85565b610dcc610dc482610da6565b848454610d2b565b825550505050565b5f90565b610de0610dd4565b610deb818484610daf565b505050565b5b81811015610e0e57610e035f82610dd8565b600181019050610df1565b5050565b601f821115610e5357610e2481610cfe565b610e2d84610d10565b81016020851015610e3c578190505b610e50610e4885610d10565b830182610df0565b50505b505050565b5f82821c905092915050565b5f610e735f1984600802610e58565b1980831691505092915050565b5f610e8b8383610e64565b9150826002028217905092915050565b610ea482610ac2565b67ffffffffffffffff811115610ebd57610ebc6107ed565b5b610ec78254610cce565b610ed2828285610e12565b5f60209050601f831160018114610f03575f8415610ef1578287015190505b610efb8582610e80565b865550610f62565b601f198416610f1186610cfe565b5f5b82811015610f3857848901518255600182019150602085019450602081019050610f13565b86831015610f555784890151610f51601f891682610e64565b8355505b6001600288020188555050505b505050505050565b5f606082019050610f7d5f830186610ab3565b8181036020830152610f8f8185610b04565b9050610f9e6040830184610b3c565b949350505050565b7f4e6f7420746865206f776e6572000000000000000000000000000000000000005f82015250565b5f610fda600d83610acc565b9150610fe582610fa6565b602082019050919050565b5f6020820190508181035f83015261100781610fce565b9050919050565b7f576f726b20494420646f6573206e6f74206578697374000000000000000000005f82015250565b5f611042601683610acc565b915061104d8261100e565b602082019050919050565b5f6020820190508181035f83015261106f81611036565b905091905056fea26469706673582212206854c30d5b2078b7355063841c863495cf19565f3b5046880a73feea323c0ec464736f6c63430008150033",
  "immutableReferences": {},
  "source": "// SPDX-License-Identifier: MIT\r\npragma solidity ^0.8.2;\r\n\r\ncontract CopyrightGuard {\r\n    // Declaramos una variable pblica owner de tipo direccin para almacenar la direccin del propietario del contrato.\r\n    address public owner;\r\n    \r\n    // Declaramos una enumeracin WorkType que tiene dos valores posibles: Literary y Musical.\r\n    enum WorkType { Literary, Musical }\r\n    \r\n    // representa la informacin de una obra\r\n    struct Work {\r\n        address creator;\r\n        WorkType workType;\r\n        string description;\r\n        uint256 timestamp;\r\n        bool exists;\r\n    }\r\n    //  Creamos un mapeo que asocia identificadores de obra (uint256) con instancias de la estructura Work.\r\n    mapping(uint256 => Work) public works;\r\n\r\n    // Declaramos un evento que se emitir cuando se registre una nueva obra. Este evento captura informacin relevante sobre la obra registrada.\r\n    event WorkRegistered(\r\n        uint256 indexed id,\r\n        address indexed creator,\r\n        WorkType workType,\r\n        string description,\r\n        uint256 timestamp\r\n    );\r\n\r\n    //  modificador que restringe ciertas funciones solo al propietario del contrato.\r\n    modifier onlyOwner() {\r\n        require(msg.sender == owner, \"Not the owner\");\r\n        _;\r\n    }\r\n    // Inicializa el propietario \r\n    constructor() {\r\n        owner = msg.sender;\r\n    }\r\n    // Permite a los usuarios registrar una nueva obra, verifica que el identificador no exista ya y emite el evento WorkRegistered al registrar la obra.\r\n    function registerWork(\r\n        uint256 id,\r\n        WorkType workType,\r\n        string memory description\r\n    ) external {\r\n        require(!works[id].exists, \"Work ID already exists\");\r\n        works[id] = Work(msg.sender, workType, description, block.timestamp, true);\r\n        emit WorkRegistered(id, msg.sender, workType, description, block.timestamp);\r\n    }\r\n    // Verifica la autenticidad de la obra por su id , y muestra si la obra es existente\r\n    function verifyAuthenticity(uint256 id) external view returns (\r\n        address creator,\r\n        WorkType workType,\r\n        string memory description,\r\n        uint256 timestamp\r\n    ) {\r\n        require(works[id].exists, \"Work ID does not exist\");\r\n        return (works[id].creator, works[id].workType, works[id].description, works[id].timestamp);\r\n    }\r\n    // Permite a nuestros users monitorear el uso de la obra por su id, y muestra el timestamp en el que se registro la obra\r\n    function monitorUsage(uint256 id) external view returns (uint256 timestamp) {\r\n        require(works[id].exists, \"Work ID does not exist\");\r\n        return works[id].timestamp;\r\n    }\r\n    //  Aqu permitimos hacer la transferencia de propiedad a una nueva direccin \r\n    function transferOwnership(uint256 id, address newOwner) external onlyOwner {\r\n        require(works[id].exists, \"Work ID does not exist\");\r\n        works[id].creator = newOwner;\r\n    }\r\n}\r\n",
  "sourcePath": "C:\\Users\\Kenia\\Desktop\\SmartContracts\\CopyrightGuardProject\\contracts\\CopyrightGuard.sol",
  "compiler": {
    "name": "solc",
    "version": "0.8.21+commit.d9974bed.Emscripten.clang"
  },
  "schemaVersion": "3.4.16",
  "updatedAt": "2023-12-14T14:20:01.288Z",
  "devdoc": {
    "kind": "dev",
    "methods": {},
    "version": 1
  },
  "userdoc": {
    "kind": "user",
    "methods": {},
    "version": 1
  }
}